:020000040800F2
:100000000806002071270008AF120008B11200088E
:10001000B3120008B5120008B71200080000000073
:10002000000000000000000000000000B9120008FD
:10003000BB12000800000000BD120008BF1200083B
:1000400093270008972700089B2700089F27000890
:10005000A3270008A7270008AB270008AF27000840
:10006000B3270008B7270008BB270008BF270008F0
:10007000C3270008C7270008CB270008CF270008A0
:10008000D3270008D7270008DB270008DF27000850
:10009000E3270008E7270008EB270008EF27000800
:1000A000F3270008F7270008FB270008FF270008B0
:1000B00003280008072800080B2800080F2800085C
:1000C00013280008172800081B2800081F2800080C
:1000D0002328000837220008272800082B280008BA
:1000E0002F28000833280008372800083B2800087C
:1000F0003F28000843280008472800084B2800082C
:100100004F28000853280008572800085B280008DB
:100110005F28000863280008672800086B2800088B
:100120006F28000873280008772800087B2800083B
:100130002DE9F04F0FF2A41CA1B0DCE90089CDE954
:1001400000892A9DDFF8DC9B049100248DF8435040
:100150000D944FF0FF38824616461F460FE0B34617
:100160002C461BF8011B0498D0470028049000F08F
:10017000A2800D98401C641E0D90F2D17619307843
:10018000252808D1002100220791089209910A929E
:100190000B910C920DE06A464146304600F0DAFFC2
:1001A000050001D10D98A1E0D9D50125E6E741F080
:1001B000010116F8010F2028F9D023280CD02B2894
:1001C00004D02D2805D0302809D076E041F0020176
:1001D000EFE741F00401ECE741F00801E9E741F005
:1001E0001001E6E70F9209E00F98484505DA00EBA9
:1001F000800402EB4402303A0F92761C3278A2F16E
:1002000030000A28F0D330782E2818BFCDF8388077
:1002100022D116F8010F2A2807D138683860761CD9
:1002200050F8042B38600E9216E02D280CBF761C77
:10023000002000220E920AE040B90E9A4A4505DAE3
:1002400002EB820403EB4403303B0E93761C3378BD
:10025000A3F130020A2AEFD3ADF8401021A0317883
:1002600000F082FF08B116F8010B8DF842009DF8EE
:100270004200682804D1307868280AD1622105E05C
:100280006C2804BF30786C2803D171218DF842109E
:10029000761C12A806903A4616F8013B02A9504671
:1002A00000F064F838B912AA02A9504600F0C8F963
:1002B00000287FF564AF404618E02A2892D13A68BA
:1002C0003A6052F8040B3A6000280F9003D5404280
:1002D0000F9041F00401761C95E70000000000003B
:1002E00000000000686A6C747A4C000021B0BDE820
:1002F000F08F622820D0682811D06A2803D06C289B
:1003000027D0712825D10868C01D20F0070008609B
:10031000D0E9002308300860194610467047002ACB
:100320000A680A60106803D0121D0A6000B217E064
:10033000121D0A6080B217E0002A0A680A6010687D
:1003400003D0121D0A6040B20AE0121D0A60C0B25A
:100350000AE0002A0A680A60106803D0121D0A60C9
:10036000C1177047121D0A60002170477CB50D4609
:1003700011461C462E69B4F1250200F04F811C3A4B
:1003800000F08480121F022A40F280800E3A00F0B2
:100390000981521F59D0093A78D0921E16D0521EA8
:1003A00035D0521E022A71D9121F30D0521F00F0D0
:1003B0009880521E49D0521E00F0E280D21E00F0FA
:1003C000FF80921E41D0D21E3FD02DE195F83A40D9
:1003D0006C2C09D06869421C6A610A680A6052F88C
:1003E000043B0A60335429E10A680A6052F8043B6E
:1003F0000A600093002201924FF0FF332B636A469C
:10040000294600F098F9002840F1188103E195F899
:100410003A000122FFF76DFFC5E90001002904D56C
:100420006869411C69612D220DE0288F810704D580
:100430006869411C69612B2205E0C00721D5686904
:10044000411C6961202232541BE095F83A000022D9
:10045000FFF74FFFC5E9000195F83800010710D5F7
:10046000D5E90023002B08BF002A0AD044F0200061
:10047000782806D1686930213154401C421C6A61D9
:100480003454214668693044E86087E00868C01D3C
:1004900020F007000860D0E9002308300860C5E9B3
:1004A0000023D5E90001C80F04D06869411C6961C7
:1004B0002D220DE0288F810704D56869411C6961F0
:1004C0002B2205E0C00704D56869411C6961202220
:1004D000325468693044E8602146284600F036FA14
:1004E000ACE005F13A02507820B14FF0FF340FF63E
:1004F000043074E01078622808D0682824D06A2874
:1005000012D06C282ED071280ED02BE00A680A6019
:1005100052F8040B0A6020B94FF0FF340FF6EC20BC
:100520005DE0E96A017089E00A680A6052F8040B2C
:100530000A6020B94FF0FF340FF6D0204FE0EA6A8E
:10054000D317C0E9002379E00A680A6052F8040B67
:100550000A6020B94FF0FF340FF6B0203FE0E96A9F
:1005600001806BE00A680A6052F8040B0A6020B947
:100570004FF0FF340FF6942031E0E96A01605DE04E
:100580000A680A6052F8040B0A60002120F0000299
:1005900021F0FF33C5E90023EE607821284600F002
:1005A0002DF94BE06C2285F83A200B680B6053F86C
:1005B000042B0B6052BB4FF0FF340FF684200EE08B
:1005C00095F83A206C2AF0D00868086050F8044B7F
:1005D0000860EC603CB94FF0FF340FF6482000F0A3
:1005E000EBFD201A76BD2E6B002E04D5204600F0C0
:1005F00003FE044608E032460021204600F026FEB5
:10060000002814BF041B3446AC6117E0294600F0F3
:1006100092F8002812D54FF0FF3076BD6869411C72
:1006200069612522325409E06969481C6861252204
:100630007254210002D0431C6B613454002076BDFB
:100640002DE9F0410E4605469046726B7069316A9D
:10065000B46A121AB069521A716A121AF069521AFF
:10066000121A96F83800141B41070DD4002C0BDD2C
:100670002746B0682021A8470028B06057D0F06A0C
:10068000401C7F1EF062F4D1736942463146284611
:1006900000F098FC00284AD1376A002F0ADDB068C4
:1006A0003021A8470028B06041D0F06A401C7F1E6E
:1006B000F062F4D1B369F2683146284600F082FC5A
:1006C000A8BB776A002F09DDB0683021A847B06069
:1006D00068B3F06A401C7F1EF062F5D1F068B16922
:1006E000F36942183146284600F06CFCF8B9B76A45
:1006F000002F09DDB0683021A847B060B8B1F06ABA
:10070000401C7F1EF062F5D196F8380041070BD5EA
:10071000002C09DDB0682021A847B06038B1F06A2C
:10072000401C641EF062F5D10020BDE8F0814FF05E
:10073000FF30BDE8F0812DE9F8470D46A3B02F6BDF
:10074000002F0646904648BF6FF000470FF60C1486
:1007500000F0A8FDD4E90023696B4018CDE901231E
:10076000812828BF4FF0FF3042D20024002F33DD14
:10077000D8F8001001AA684600F0EEFC8146B9F1F5
:10078000000F38D4D8F8000010B9B9F1010932D4FB
:100790004F4521DB6869484481280AD300216963F9
:1007A00003AA29463046FFF74BFF040014D400206B
:1007B000686103ABD5F814A04A46694603EB0A000A
:1007C00000F07EFDCA44C5F814A058F8040B0028B8
:1007D00018BFA7EB0907C9D14CB903AA294630466F
:1007E000FFF72EFF044614B90020686168632046B5
:1007F00024B0BDE8F0874FF0FF34F8E72DE9FC4363
:1008000007466F293E6908BF082405D041F0200043
:10081000782814BF0A2410243C25D7E90023642932
:1008200018BF69299046994605D1002B03D5D8F108
:10083000000869EB4909B9F1000F08BFB8F1000FD2
:100840001FD1386BE8B9082C4CD197F83800010754
:1008500048D530203B2586F83B0043E000280ED5E4
:1008600097F8380000F01400102808D17B6B7969E4
:10087000386A5B1A1B1A9A1A002AC8BF3A62BDE886
:10088000F3838DF80010404649462246E31700F0F6
:100890006BFD3032D0B26D1E3A28019504DB9DF815
:1008A0000000A0F151018A1872554046494622467F
:1008B000E31700F059FD80465FEA010908BFB8F16F
:1008C000000F03D0F86871198842DCD3082C09D1D5
:1008D00097F83800010705D5705D302802D06D1EED
:1008E00030207055C5F13C02BA617119F960386B5E
:1008F0008242B3DA821A3A624FF6EF70398F0140C2
:100900003987BDE8F3832DE9D04306460F461446E8
:100910004FF00008DFF8109412E0E00707D54246D8
:100920004B463046394600F037FE06460F464046F5
:10093000494642464B4600F02FFE641080468946E9
:10094000002CEAD130463946BDE8D0832DE9F84F76
:1009500005468A464AF020048EB0D5E90089612C0C
:1009600002AE09D0286B002848BF062003D408BF78
:10097000672C01D101202863D5E900014A005215F6
:10098000521C0DD10B030BD0AAF1610103201A29CF
:10099000A86102D20FF2CC6110E00FF2CC610DE041
:1009A0004A005215521C0ED10B030CD1AAF1610161
:1009B00003201A29A86116D30FF2B461E868032254
:1009C00000F07EFCC0E1CDE90C01DDE90C2323F051
:1009D0000043B3F5801F0DD20027002B08BF002A6B
:1009E000019703D111E00FF28461E7E701AA00F05B
:1009F000A5FE0AE0CD48CE4900EB1350DDE90C23FB
:100A000001900B40CB4910461943C5E90001612C08
:100A10000DD1E86830210170821CBAF1610FEA60E3
:100A20000CBF7821582141706869801C6861D5E944
:100A30000001CDE90C01DDE90C2333F0004104BFD6
:100A40000028002300F04881612C40F0A080286B32
:100A5000494600284CBF4FF0210B00F1010B4046E6
:100A600000220023DDE90C8900F0A0FE01990BF1C2
:100A7000010738BF89F00049091F002F01918DF847
:100A800008200DF1090040F33581A949009106467F
:100A9000404649460022002300F0A0FE80F0298154
:100AA0004800400D00F11C0211D0002A0FDD40F279
:100AB000FF739A4205DBA04909F000400143002082
:100AC00011E0009B194041EA025140460BE028F03A
:100AD000000039F0004108BF00280FBF49461C2222
:100AE000494600F093FE8046894600F02DFFFF1F27
:100AF000002F044609DD00F045FF02460B46404644
:100B0000494600F051FF80468946F01D072104E068
:100B100004F00F0200F8012D2411002C01DD491E04
:100B2000F6D5491E5CBF002200F8012DF9D5DCE0A6
:100B30000020194602AA0A4400E05B1E12F801498F
:100B4000491E8442F9D00F2804D10DF10900425CFE
:100B5000521C4254002904D50198001D02AE5B1CB2
:100B60000190581E0CD43118AAF13A040A78303298
:100B7000D7B23A2FA8BFA218401E01F80129F5D517
:100B8000286B002840F1A780591E2963A3E0019932
:100B90006A4A47F29750414391FBF2F2019229F0E1
:100BA0000046D2F1070204DD40463146FFF7ABFEB6
:100BB0000AE0524200206249FFF7A5FE02460B46BA
:100BC0004046314600F062FF8046662C286B06BF27
:100BD000019F0A3706273F18142FC8BF142730205B
:100BE0008DF8080089460DF1090000E03046002F1D
:100BF00034DD06464046494601F06CF801460A4697
:100C000006F1080304200A26B2FBF6F606EB860E70
:100C1000A2EB4E02303203F8012C0A22B6FBF2F2AC
:100C200002EB820EA6EB4E063036401E03F8026D34
:100C3000E9D1083F002F03F10806D7DD084601F08F
:100C40005DF802460B464046494600F0ADFE0022E4
:100C50003C4B00F0A1FC80468946CBE70DF1090131
:100C6000401A0DF1090604E00199491E401E019148
:100C7000761C31783029F7D0662C02D10199491CB5
:100C800003E0652C0CBF012100212B6BCB1898428F
:100C9000B8BF431E002B1ED4834204DAF05C352813
:100CA000A8BF392000DA30201946721E02EB010875
:100CB00000E05B1E18F80199491E8145F9D03928DA
:100CC00002D1705C401C7054002904D50198401C6E
:100CD00016465B1C0190019800B200901BB2324690
:100CE0005146284600F034F82EE0C61D002F3FF78D
:100CF000CFAE30460DF10901401A03465845C8BF32
:100D00005B46002B0DF109063FF53AAF8342BFF673
:100D10000FAF0DF10900C15C07297FF709AF0F2064
:100D200007E70000CBCCCC0C0000244002FCFFFF06
:100D3000FFFF0F800000E03F0000F07FA086010071
:100D40000000F03F84D797410FB0BDE8F08F00005E
:100D50002DE9F84783B006468A461746984600F0C4
:100D6000FDF9B8F1000F406A356B90F8009002DC95
:100D70004FF00108BFA74AF02000BDF930406628B7
:100D800008BF641C15D0672840F0848014F1040F5C
:100D9000C0F28680AC4280F2838096F83800641CF2
:100DA000010702D4A845B8BF454620B22D1A48BF56
:100DB00000250FFA84FAF068B169BAF1000F25DC5A
:100DC0004A1C30234354002D03DC96F838000107F9
:100DD00003D5F06800F80290521C15EB0A0FB8BF5B
:100DE0006C4220B2441941424445B8BFA046B261AA
:100DF00071620FFA88F5F561F068B3692A463946E1
:100E0000184400F05DFA641BB462C4E022B290455D
:100E1000084417DA4246394600F052FAB0694044B5
:100E2000B061AAEB0801002D716203DC96F838105E
:100E30000A0705D5F16801F80090F069401CF061DF
:100E4000B562A8E0394600F03BFAB069002D504485
:100E5000A8EB040803DC96F838100A0703D5F168FC
:100E600001F80090401CB0610FFA88F08542F368E9
:100E7000B069B8BFA8460FFA88F207EB0A01184418
:100E800000F01EFAB1690FFA88F00144B161281A26
:100E9000706280E0BAF1610F14D14FF0700A16E071
:100EA000A84504DA96F838100A0758BF45466D1E63
:100EB00048BF0025BAF1670F14BF4FF0450A4FF045
:100EC000650A04E0BAF1410F08BF4FF0500AB1695A
:100ED000F368481CB061002D17F8012B5A5403DC4D
:100EE00096F838100A071BD5F168431CB36101F866
:100EF0000090002D14DDA8F101080FFA88F03946A2
:100F00008542F768B8BFA8460FFA88F2F81800F0D3
:100F1000D7F9B0690FFA88F108446D1AB0617562AB
:100F2000F068B1690844002C80F800A003D42B229B
:100F30004270811C03E02D2141706442811C00201D
:100F40006A460AE023460A2493FBF4F404EB840582
:100F5000A3EB450302F8013B401C24B2002CF1DC5A
:100F6000012806DC4AF02002652A04BF302201F87D
:100F7000012B48B9302001F8010B07E0401E1DF895
:100F80000030303301F8013B0028F7DCF268B0692B
:100F90001044091AF16196F8380000F01400102886
:100FA0000DD17269B169706A8A18F1698218B06AE4
:100FB0008A188218706B8242BCBF821A326204B0F7
:100FC000BDE8F087F8B505460E4617461C460020DA
:100FD00074B117F8011BB068A847B06030B1F06A6F
:100FE000401CF0620020641EF3D1F2BD4FF0FF30D0
:100FF000F2BD00007072696E74665F733A20256EF0
:1010000020646973616C6C6F776564007072696EDF
:1010100074663A2062616420256E20617267756D86
:10102000656E74007072696E74665F733A206261F7
:101030006420257320617267756D656E7400000011
:101040007072696E74665F733A2062616420256C09
:101050007320617267756D656E740000000000009A
:10106000000000006E616E004E414E00696E660029
:10107000494E46003000F0B40246106895681318D7
:10108000506803EB5004C0071DD54D441BE013F816
:10109000017B05F8017B491EF9D1A0B1B60813F810
:1010A000011B06F00306032E08BF13F8016B01EBCA
:1010B00006214942801C294405D011F8016B05F82E
:1010C000016B401EF9D1A3420ED013F8016B16F04C
:1010D000030104BF13F8011BC91C30090F28DAD122
:1010E00013F8010B0F30D6E7F0BC02F10C0070478B
:1010F0001B48704770B45368D418042B09DA41B107
:10110000057804F8015B10F8016B16B15B1C491EF1
:10111000F3E7536070BC704738B514461D4661B1A3
:10112000FFF7E8FF61686A6B204690476FF00102A5
:10113000811A02D0491E01D001E003E005E0002140
:10114000616032BD6FF0010032BD4FF0FF3032BD43
:10115000DA6B1047024BDFE7014BF9E701487047B4
:101160005000002018000020C9B202788A421AB14B
:101170001CBF10F8012FF9E718BF0020704730B4EA
:10118000002513E050F8042BD30744BFA9F1010355
:101190009A18091F042942F8045BFAD213468C07F7
:1011A00044BF15809B1CC90748BF1D7050F8041B25
:1011B0000029E7D130BC704780B500B906A00549C9
:1011C0000B681BB122220021984701E000F0A3FD2B
:1011D000222002BDF8010020636F6E737472616992
:1011E0006E742068616E646C65723A20626164207E
:1011F0006D6573736167650000F10103810704D0B9
:1012000010F8011B820781B1FAD10268A2F1013105
:10121000914311F0803104BF50F8042FF6E709BA6A
:10122000B1FA81F100EBD100401CC01A7047B1F552
:10123000807F02D34FF0FF3070470170012070476C
:101240000078401E8041C043C00F7047C9B2830779
:1012500006D0521E22D310F8013B9942F7D11FE06D
:10126000083A13D302F1040241EA012141EA0141A3
:1012700050F8043B121F21BF4B40A3F1013C2CEA64
:10128000030C1CF0803FF3D0C9B2001F083210F8E5
:10129000013B521E28BF91EA030FF8D818BF012066
:1012A000401E704780B5FFF723FF006C02BD7047FA
:1012B000FEE7FEE7FEE7FEE77047704770477047BE
:1012C00062B38B0708D0521E11F8013B00F8013BB6
:1012D00000F024808B07F6D1830740F0208000BF08
:1012E000103A07D330B4B1E83810103AA0E83810FB
:1012F000F9D230BC530724BFB1E80810A0E80810A9
:1013000044BF51F8043B40F8043BD20724BF31F8F6
:10131000022B20F8022B44BF0B7803707047121F7A
:1013200017D35B0009D151F8043B20F8023B1B0C9A
:10133000121F20F8023BF6D20BE051F8043B00F8F4
:10134000013B1B0A20F8023B1B0C121F00F8013B5B
:10135000F3D238BF121D521E24BF11F8013B00F812
:10136000013BF8D870470000BBBBE1B1B2F5803F4C
:1013700080F07E80022A1ED98C46B1FBF2F102FB7E
:1013800011C31B0443EA1043B3FBF2FC02FB1C3302
:1013900080B240EA0343B3FBF2F002FB103240EAB2
:1013A0000C4000237047022A05D98446B0FBF2F0B6
:1013B00002FB10C270474AB105D100F00102490892
:1013C0005FEA3000704700220023704700F0A6BC9F
:1013D0000B000200002100207047904271EB030CCB
:1013E000F6D3B3F5803F2FD2F0B5B3FA83F7B1FA55
:1013F00081F4A7F10F0E3D1B5340CEF1200602FAF7
:101400000EF2F3415340B5F10F0746D80F3C2C4480
:101410004140C4F12006A040F1414140B1FBF3F648
:1014200003FB1611A2FB0645001BA94102D2761E42
:101430008018594180EA010221FA0EF362FA0EF295
:1014400000215A403046F0BD30B4B1FBF3FC03FB41
:101450001C11A2FB0C45001BA94103D2ACF1010CED
:101460008018594130BC02460B4660460021704747
:10147000B2F1807F65D3F0B5B2FA82F7B1FA81F4A8
:10148000C7F10F063D1B22FA06F307F1110EF241D8
:1014900020355A40B5F10F07B8D94140C4F12006B4
:1014A000A040F1414140B1FBF3FC03FB1C11A2FB46
:1014B0000C45001BA94103D2BCF1010C8018594115
:1014C0000F2F12D30F3FC90341EA5041B1FBF3F68E
:1014D00003FB1611A2FB0645D4EBC030A94102D292
:1014E000761E8018594146EACC3C07B34140C7F10B
:1014F0002006B840F1414140B1FBF3F603FB161161
:10150000A2FB0645001BA94102D2761E8018594154
:1015100080EA010221FA0EF3C7F1200462FA0EF20A
:101520000CFA07F05A402CFA04F13043F0BD80EA7F
:10153000010221FA0EF3002162FA0EF260465A40CF
:10154000F0BD8C46B1FBF2F102FB11C31B0243EA72
:101550001063B3FBF2FC02FB1C331B024CEA0020BD
:1015600043EA1063B3FBF2FC02FB1C331B024CEAA0
:10157000002043EA1063B3FBF2FC02FB1C331B02A6
:101580004CEA002043EA1063B3FBF2FC02FB1C327E
:101590004CEA002000237047B0B581EA030C0CF040
:1015A000004C40F2FF7515EA11541DBF15EA1357A0
:1015B000AC42AF4239E0E41923EA455343F48013C7
:1015C000C90241F0004141EA505EC7021100A7FB89
:1015D000020200284FF00000EEFB01204FF0000156
:1015E000E3FB072118BF42F00102401800214941E6
:1015F000E3FB0E01A4F580640F0302D252004041C8
:10160000494154F101046CDD470872F1004250F188
:10161000000051EB0451A1F580115CBF41EA0C01BF
:10162000B0BD4CEA05510020B0BD05EA1357AC42ED
:1016300014BFAF4241E050EA410E1CBF52EA430ED4
:1016400002E061460020B0BD24423C441BD15FEA69
:10165000070EF6D0090302BF01460020AEF1140EBA
:10166000B1FA81F7AEEB070401FA07FE0C37C7F1B8
:10167000200100FA07F7C8404EEA000E23EA45535E
:1016800043F48013A2E733F00043B3FA83F704BFB7
:10169000B2FA82FE77440B3FE41BB7F1200E2FBF56
:1016A00002FA0EF3BB40C7F1200E22FA0EFE38BF3D
:1016B00043EA0E03BA40641C82E750EA410E14BFAD
:1016C00052EA430E6FF000014FF4001717EB430F7F
:1016D0008ABF194617EB410FB5E74CEA05510020C8
:1016E000B0BDD4F10104B4F120070FDAC4F1200732
:1016F000520828BF42F0010210FA07F501FA07F775
:10170000E1BF2A43E0403843E1400FE0352C98DC4C
:10171000C7F1200452EA400220FA07F218BF42F053
:10172000010231FA07F0A1400A43002172F10042A0
:1017300050F1000051EB0C01B0BD000010B5144693
:1017400000F002F8226010BDC1F30A5343B14A0011
:1017500012F5001F28D2A3F2FE32A1EB025170470E
:1017600050EA410C20D001F0004C31EA0C01B1FAF2
:1017700081F204BFB0FA80F3D2180B3AB2F1200321
:101780002CBF00FA03F1914041EA0C013EBFC2F1C7
:10179000200C20FA0CF319439040524240F2FD33E2
:1017A000D21A01EB03517047002270474FF4001C1E
:1017B0001CEB410F94BF1CEB430F09E041EA030C03
:1017C00050EA4C0C52EA0C0C03D2994208BF9042EA
:1017D000704714BF8B428242704700004FF4001CD8
:1017E0001CEB410F94BF1CEB430F09E041EA030CD3
:1017F00050EA4C0C52EA0C0C03D28B4208BF8242D6
:10180000704714BF9942904270470000124254D46E
:1018100040F2FF7C1CEA11530FD0634531D09B1876
:1018200063453CBF01EB0251704701F0004141EAC2
:101830000C510020AFF30080704750EA410320D0E4
:1018400001F0004C91EA0C011CD0B1FA81F30B3B82
:101850009A420DD9D21A994051EA0C01C3F1200CD9
:1018600020FA0CFC61449840531C40F2FF7CD7E7FF
:10187000914041EA0C01C2F1200C20FA0CF319430B
:1018800090407047B0FA80F31533202BE0D3202A24
:10189000EED3203A203B9A4209D9D21A00FA03F13A
:1018A00041EA0C010020531C40F2FF7CB8E700FA2B
:1018B00002F141EA0C0100207047524240F2FF7CE5
:1018C0001CEA11530DD06345DBD0B2EB030C3CBFD7
:1018D000A1EB025170470CF1010221EA035141F4DE
:1018E000801150EA410CCCD001F0004C352A27DCA5
:1018F00030B481EA0C01B2F1200309DAC2F120030D
:10190000044601FA03F5D0402843D1409C400CE046
:10191000C3F12002450020FA03F418BF44F001048B
:1019200021FA03F091400C43002174F1004550F17D
:10193000000051EB0C01244230BC7FF47BAF7047B8
:101940006146002076E70000C1F30A5340F2FE3200
:101950009B1A14DDD3F120034FEAE17208DDC902BE
:1019600041EA505141F00040D84080185040704743
:1019700003F2E13010B1D24382F000407047002002
:1019800070470000C11768B14840401AB0FA80F2B1
:101990009040D21CC907C2F5846241EA025202EBB0
:1019A000D02140057047000070B44FF0004591EA27
:1019B000030F40F1B5816B40841A71EB030603D22B
:1019C000001BB141121973414FF4001C1CEB410F75
:1019D00034BF7CEB430442E00C0DA4EB1356352ED0
:1019E0004FDC45EAC323DB0A45EAC121C912B6F13F
:1019F00020050DDD63FA05F6EB4086EA0305124289
:101A000018BF45F00105C01851F100010CD213E0D8
:101A100062FA06F5F2405540F3415A40B340F340B4
:101A20005A408018594107D349085FEA30005FEAFD
:101A3000350528BF45F0010501F58011420875F113
:101A4000004250F1000041EB04514E0016F5001F1A
:101A500070BC38BF70470020090D090570471CEBAA
:101A6000410F10D252EA43060BD0BCEB410F05D810
:101A70000C0DAB43661E342EB6DD02E0AB4380187E
:101A8000594170BC704770BC70470000F0B540F21F
:101A9000FF7581EA030C0CF0004C15EA11541DBFD0
:101AA00015EA1357AC42AF42E5E0BC41C1F3130164
:101AB000C3F31303801A994143F4801304D2641EC4
:101AC0004000494180185941C90241EA5051B1FBD7
:101AD000F3F603FB1611A2FB0675D7EBC020A94154
:101AE00002D2761E80185941C90241EA5051B1FB19
:101AF000F3FE03FB1E11A2FB0E75D7EBC020A9411C
:101B000003D2AEF1010E80185941890241EA905189
:101B1000760546EA8E2EB1FBF3F603FB1611A2FB07
:101B20000675D7EB8020A94102D2761E8018594154
:101B3000C90241EA50514EEA060EB1FBF3F603FB2F
:101B40001611A2FB0675D7EBC020A94102D2761E62
:101B500080185941C90241EA5051B1FBF3F703FB28
:101B60001711A2FB0735D3EBC020A94167F100078D
:101B70000CBF004247F0010766F3D5274FEA1E313C
:101B8000B80814F5806412DDBD0775F1004250EB12
:101B90000E5051EB045111F5801F5CBF41EA0C015E
:101BA000F0BD4CF07F6141F0E0410020F0BDBD0789
:101BB0006D0840EA0E5041F48011D4F10104B4F1F3
:101BC00020060ADAC4F120060200E04001FA06F31A
:101BD000E1401843B24015430EE0342C13DCC6F14B
:101BE000200445EA40056D0820FA06F2154321FA63
:101BF00006F0A1400D43002175F1004250F10000B4
:101C000051EB0C01F0BD00205FEA0C01F0BDCFB933
:101C100092185B41B3FA83F704BFB2FA82F6BF1998
:101C20000B3FB7F120062FBF02FA06F3BB40C7F106
:101C3000200622FA06F638BF3343BA401CB1E41935
:101C4000641E33E77F4231F00041B1FA81F404BFF2
:101C5000B0FA80F6A4190B3CB4F120062FBF00FAAD
:101C600006F1A140C4F1200620FA06F638BF314340
:101C7000A0403C1B1AE7AC421ABF05EA1357AF421B
:101C800012E050EA41061CBF52EA4306BFE750EAA1
:101C90004107304661461CBF41EA0551F0BD52EA9A
:101CA000430C08BFC143F0BD00204FF4001616EBF3
:101CB000410F98BF16EB430F08BF16EB410F24BF2F
:101CC000C14305E016EB430F0CBF61464CEA0551DA
:101CD000F0BD0000400D491840EA81200CD2490DAA
:101CE000A1F58061491C40F0004005DBD1F11F01E6
:101CF00054BFC840C017704700207047014648B124
:101D0000B0FA80F18840C91CC1F58461090501EB76
:101D1000D02140057047012000F0B8B8704700009E
:101D2000841A71EB030604D26E40001BB1411219F4
:101D300073414FF4001C1CEB410F34BF7CEB430696
:101D400083E00C0DA4EB1356362E00F37C80012E9D
:101D500045EAC32341DC43EA525312BFD202920246
:101D60005B08240545EAC12141EA5051D2EBC0206D
:101D7000994125D407D1B0FA80F610FA06F162D065
:101D80000020203608E0B1FA81F6B140C6F1200209
:101D900020FA02F21143B0404FEAF474B4EB465417
:101DA00034F001064FEA74040AD8D6F50016760D11
:101DB00004F00044F04061FA06F25040F14048401F
:101DC000C00A40EA415021F0004128BF5FEA5005B7
:101DD00050F1000044EBD12135E0DB0A45EAC12196
:101DE000C90AB6F120050EDD42EA0242120CC5F125
:101DF000200603FA06F6EB4042EA06056D429841DA
:101E000061F100010DE062FA06F5F240554063FA17
:101E100006FC82EA0C02F3405A406D42904161EBAD
:101E2000030111F4801F05D1641E620502D06D000C
:101E30004041494121F48011430875F1004350F1BC
:101E4000000041EB045170BC70471CEB410F15D2F0
:101E500023F0004352EA43060BD04FEA4C0CBCEB94
:101E6000410F04D80C0D661E342EB7DDEBE7801A47
:101E7000994150EA410608BF0021E4E708BF1CEB86
:101E8000430F28BF6FF00001DDE7000020210903A8
:101E900026311820ABBEF9E72DE9F84F86B00400D3
:101EA0000D00002600275FF000085FF000095FF0DA
:101EB000000AA8890028A346218A4CF6FF70014039
:101EC000E8880143009100982082A1894EF6F31022
:101ED0000140AA882889024368890243114300917E
:101EE0000098A081A18A4FF6FF400140A8890143D4
:101EF00000910098A08201A800F0BCF81C4883451E
:101F000001D1049900E00399A089000407D51920A4
:101F100000FB01F02A685200B0FBF2F206E0192043
:101F200000FB01F02A689200B0FBF2F26420B2FBE1
:101F3000F0F6360133001B09642000FB1323A0894F
:101F4000000408D5D80032306427B0FBF7F010F059
:101F50000700064307E0180132306427B0FBF7F0B2
:101F600010F00F000643268107B0BDE8F08F000097
:101F7000003801400A0052B2002A04D0828952F48B
:101F80000052828104E083894DF6FF721340838101
:101F900070472DE9F0410023002500275FF0000E77
:101FA0000C0040F66A16A4B2B44280460C00E4B2BB
:101FB0006409E4B20E00B6B216F01F065FF0010C21
:101FC0001CFA06FC012C02D118F10C0806E0022CC8
:101FD00002D118F1100801E018F1140813005BB2E7
:101FE000002B06D0D8F800305CEA0303C8F80030B4
:101FF00005E0D8F8003033EA0C03C8F80030BDE83B
:10200000F0818088C005C00D7047F0B4040000273F
:102010000020002200260B0040F66A159BB2AB425E
:102020000D00EDB26D09EDB20B009BB213F01F0372
:102030005FF0010C1CFA03F3012D02D1A0890340CB
:1020400006E0022D02D1208A034001E0A08A03406D
:102050000A0092B2120A92B21CFA02F220880240DE
:10206000002B03D0002A01D0012000E0002040B264
:10207000F0BC70472DE9F04F010000220025002040
:102080000026394FD7F800C01CF00C0C6346002B1B
:1020900004D0042B05D0082B06D023E0334A0A6075
:1020A00022E0324A0A601FE03A6812F470123B687C
:1020B00013F480331800920C921C1500002804D1F0
:1020C0002B4A02FB05F20A600BE03A68920304D542
:1020D000274A02FB05F20A6003E0244A02FB05F2EC
:1020E0000A6001E0214A0A603C6814F0F004240907
:1020F000DFF8809019F804E00A6832FA0EF24A60BC
:102100003B6813F4E0631B0A19F803804A6832FA4B
:1021100008F28A603A6812F46052D20A19F8029002
:10212000D1F804A03AFA09FAC1F80CA03F6817F4F4
:102130004047BF0BDFF840A01AF807A0D1F80CB059
:10214000BBFBFAFBC1F810B0BDE8F08F0A0052B239
:10215000002A04D0094A13680343136003E0074AC6
:1021600013688343136070470410024000127A0022
:1021700000093D000000002010000020181002405F
:10218000494A12885206FBD50200D2B2474B1A8048
:10219000704738B586B00400012144F20400FFF70F
:1021A000D5FF4FF40070ADF8000003208DF8020059
:1021B00018208DF803003E4D6946280000F07EF897
:1021C0004FF48060ADF8000004208DF803006946EC
:1021D000280000F073F825208DF8040003208DF806
:1021E000050003208DF8060001208DF8070001A8E6
:1021F00000F0E7F802940020ADF80C000020ADF8E4
:102200000E000020ADF810000020ADF814000C20E6
:10221000ADF81200244D02A92800FFF73DFE01226F
:1022200040F225512800FFF7B4FE01212800FFF7F6
:10223000A1FE07B030BD38B51B4D40F22551280036
:10224000FFF7E3FE00282CD02800FFF7DAFE040099
:1022500018480188090424D4018849040BD52100B9
:10226000C9B20A2902D0002101801AE0018851F484
:102270000041018015E02100C9B20D2904D1018877
:1022800051F4804101800CE00B4902889204920CC9
:102290008C540188491C01800188C82901DB002178
:1022A000018031BD000000000038014004380140C9
:1022B00000080140FE010020E0000020F0B50022EF
:1022C0000023002400250026002791F803C01CF0FD
:1022D0000F0C91F803E05FEACE6E03D591F902206E
:1022E00052EA0C0C0A7812062CD002681600002262
:1022F0001400082C25D25FF0010E1EFA04F215001E
:102300000A882A401300AB4219D1A20015000F22FF
:10231000AA401700BE431CFA05F2164391F90320A8
:10232000282A04D11EFA04FEC0F814E007E091F94F
:102330000320482A03D11EFA04FEC0F810E0641CF2
:10234000D7E706600A88B2F5807F30DB4268160066
:1023500000221400082C29D25FF0010E14F10802AB
:102360001EFA02F215000A882A401300AB421BD164
:10237000A20015000F22AA401700BE431CFA05F266
:10238000164391F90320282A04D114F108021EFAF9
:1023900002F2426191F90320482A05D114F10802A2
:1023A0001EFA02FEC0F810E0641CD3E74660F0BDE0
:1023B0000A0092B20261704723490143234A116027
:1023C0007047F0B4002200230F2490F90310002975
:1023D0001FD01E49096811F4E061D1F5E061090AD6
:1023E000D1F104052B00CC4045789D4086782640ED
:1023F00035432D012A00164D0678AA550125067889
:1024000016F01F06B540134E07787F1146F8275087
:1024100009E00121057815F01F05A9400E4D067849
:10242000761145F82610F0BC7047042805D10B49F9
:102430000A6852F004020A6004E008490A6832F0AF
:1024400004020A60704700000000FA050CED00E08D
:1024500000E400E000E100E080E100E010E000E0E6
:1024600080B53E49086850F0010008603C4A136896
:102470003C48034013600B683B4803400B6008680E
:1024800030F480200860106830F4FE0010605FF4C3
:102490001F003649086000F005F85FF0006034491D
:1024A000086001BD80B500F001F801BD82B00020D8
:1024B0000190002000902949086850F4803008609D
:1024C000086810F4003000900198401C01900098BA
:1024D000002803D10198B0F5A06FF1D108688003FE
:1024E00002D50120009001E0002000900098012812
:1024F00031D12048026852F010020260026892084E
:1025000092000260026852F00202026014480268FF
:10251000026002680260026852F48062026002682F
:1025200032F47C120260026852F4E81202600A6817
:1025300052F080720A600A689201FCD5016889082D
:1025400089000160016851F002010160016811F029
:102550000C010829FAD102B07047000000100240B7
:10256000041002400000FFF8FFFFF6FE08100240D2
:1025700008ED00E00020024080B57FF00400FFF786
:1025800054FF164816490968164AB1FBF2F101706A
:1025900001784FF47A7041431348018001BD10B4B3
:1025A00003009BB2104909884B4310490B60104946
:1025B00000230B600F4B1C6854F001041C601C6866
:1025C000220012F00114012CF9D01C686408640088
:1025D0001C6000230B6010BC70470000000200204C
:1025E0001400002000127A00FC01002014E000E03A
:1025F00018E000E010E000E01CB501212420FFF706
:10260000A5FD4FF48070ADF8000010208DF8030098
:1026100003208DF802000B4C69462000FFF74EFEA8
:102620004FF480712000FFF7C3FE0420ADF80000D6
:10263000054C69462000FFF741FE04212000FFF70A
:10264000B7FE13BD000801400014014010B5FFF7AC
:1026500093FF4FF4A060FFF7AFFE4FF41650FFF763
:1026600098FDFFF7C9FF084C002020604FF47A70F6
:10267000FFF795FF01202060044800F009F84FF4AF
:102680007A70FFF78CFFEEE7A001214234270008A3
:102690000EB4C0B5024603A800210190009101AB21
:1026A0000121044878440C30FDF742FD06BC5DF87A
:1026B00010FB00BF9900000010B50749794418319C
:1026C000064C7C44163404E00A68081D114488470F
:1026D0000146A142F8D110BD08000000240000000E
:1026E0009FEAFFFF24010000E0000020000000003E
:1026F00087E9FFFF8A010000BC0000000000002005
:1027000000F00DF8002801D0FFF7D6FFAFF30080EE
:102710000020AFF30080FFF799FF00F002F80120DE
:10272000704700F001B8000007463846FFF7AEFBDF
:10273000FBE70000D5FDB5E3D4ADD7D340414C490C
:10274000454E54454B0D0A0D0A0D0A0038B5044696
:102750000D46284600F006F8A84218BF002420467F
:1027600032BD00000149FFF70BBD00BF98000020FB
:10277000014880470148004761240008812700087C
:10278000AFF30080AFF30080FFF7BAFF00002E0028
:102790004300FFF7FEBFFFF7FEBFFFF7FEBFFFF7E7
:1027A000FEBFFFF7FEBFFFF7FEBFFFF7FEBFFFF75D
:1027B000FEBFFFF7FEBFFFF7FEBFFFF7FEBFFFF74D
:1027C000FEBFFFF7FEBFFFF7FEBFFFF7FEBFFFF73D
:1027D000FEBFFFF7FEBFFFF7FEBFFFF7FEBFFFF72D
:1027E000FEBFFFF7FEBFFFF7FEBFFFF7FEBFFFF71D
:1027F000FEBFFFF7FEBFFFF7FEBFFFF7FEBFFFF70D
:10280000FEBFFFF7FEBFFFF7FEBFFFF7FEBFFFF7FC
:10281000FEBFFFF7FEBFFFF7FEBFFFF7FEBFFFF7EC
:10282000FEBFFFF7FEBFFFF7FEBFFFF7FEBFFFF7DC
:10283000FEBFFFF7FEBFFFF7FEBFFFF7FEBFFFF7CC
:10284000FEBFFFF7FEBFFFF7FEBFFFF7FEBFFFF7BC
:10285000FEBFFFF7FEBFFFF7FEBFFFF7FEBFFFF7AC
:10286000FEBFFFF7FEBFFFF7FEBFFFF7FEBFFFF79C
:10287000FEBFFFF7FEBFFFF7FEBFFFF7FEBF120070
:102880000120020102030404F00E070607080902F2
:1028900004060800A24A048C2700080452FF01F233
:1028A000008E1410010000900C120155F003161850
:1028B00000002000012002411200082C432F123C8E
:1028C0002101100702040101A8010020F80452A808
:0C28D00004211B610812DC60F212C864D5
:040000050800278147
:00000001FF
